{
  "_format": "hh-sol-artifact-1",
  "contractName": "GalacticReserveToken",
  "sourceName": "contracts/GalacticReserveToken.sol",
  "abi": [
    {
      "inputs": [],
      "stateMutability": "nonpayable",
      "type": "constructor"
    },
    {
      "anonymous": false,
      "inputs": [
        {
          "indexed": true,
          "internalType": "address",
          "name": "owner",
          "type": "address"
        },
        {
          "indexed": true,
          "internalType": "address",
          "name": "spender",
          "type": "address"
        },
        {
          "indexed": false,
          "internalType": "uint256",
          "name": "value",
          "type": "uint256"
        }
      ],
      "name": "Approval",
      "type": "event"
    },
    {
      "anonymous": false,
      "inputs": [
        {
          "indexed": false,
          "internalType": "address",
          "name": "account",
          "type": "address"
        }
      ],
      "name": "Paused",
      "type": "event"
    },
    {
      "anonymous": false,
      "inputs": [
        {
          "indexed": true,
          "internalType": "bytes32",
          "name": "role",
          "type": "bytes32"
        },
        {
          "indexed": true,
          "internalType": "bytes32",
          "name": "previousAdminRole",
          "type": "bytes32"
        },
        {
          "indexed": true,
          "internalType": "bytes32",
          "name": "newAdminRole",
          "type": "bytes32"
        }
      ],
      "name": "RoleAdminChanged",
      "type": "event"
    },
    {
      "anonymous": false,
      "inputs": [
        {
          "indexed": true,
          "internalType": "bytes32",
          "name": "role",
          "type": "bytes32"
        },
        {
          "indexed": true,
          "internalType": "address",
          "name": "account",
          "type": "address"
        },
        {
          "indexed": true,
          "internalType": "address",
          "name": "sender",
          "type": "address"
        }
      ],
      "name": "RoleGranted",
      "type": "event"
    },
    {
      "anonymous": false,
      "inputs": [
        {
          "indexed": true,
          "internalType": "bytes32",
          "name": "role",
          "type": "bytes32"
        },
        {
          "indexed": true,
          "internalType": "address",
          "name": "account",
          "type": "address"
        },
        {
          "indexed": true,
          "internalType": "address",
          "name": "sender",
          "type": "address"
        }
      ],
      "name": "RoleRevoked",
      "type": "event"
    },
    {
      "anonymous": false,
      "inputs": [
        {
          "indexed": true,
          "internalType": "address",
          "name": "from",
          "type": "address"
        },
        {
          "indexed": true,
          "internalType": "address",
          "name": "to",
          "type": "address"
        },
        {
          "indexed": false,
          "internalType": "uint256",
          "name": "value",
          "type": "uint256"
        }
      ],
      "name": "Transfer",
      "type": "event"
    },
    {
      "anonymous": false,
      "inputs": [
        {
          "indexed": false,
          "internalType": "address",
          "name": "account",
          "type": "address"
        }
      ],
      "name": "Unpaused",
      "type": "event"
    },
    {
      "inputs": [],
      "name": "DEFAULT_ADMIN_ROLE",
      "outputs": [
        {
          "internalType": "bytes32",
          "name": "",
          "type": "bytes32"
        }
      ],
      "stateMutability": "view",
      "type": "function"
    },
    {
      "inputs": [],
      "name": "MINTER_ROLE",
      "outputs": [
        {
          "internalType": "bytes32",
          "name": "",
          "type": "bytes32"
        }
      ],
      "stateMutability": "view",
      "type": "function"
    },
    {
      "inputs": [],
      "name": "PAUSER_ROLE",
      "outputs": [
        {
          "internalType": "bytes32",
          "name": "",
          "type": "bytes32"
        }
      ],
      "stateMutability": "view",
      "type": "function"
    },
    {
      "inputs": [
        {
          "internalType": "address",
          "name": "owner",
          "type": "address"
        },
        {
          "internalType": "address",
          "name": "spender",
          "type": "address"
        }
      ],
      "name": "allowance",
      "outputs": [
        {
          "internalType": "uint256",
          "name": "",
          "type": "uint256"
        }
      ],
      "stateMutability": "view",
      "type": "function"
    },
    {
      "inputs": [
        {
          "internalType": "address",
          "name": "spender",
          "type": "address"
        },
        {
          "internalType": "uint256",
          "name": "amount",
          "type": "uint256"
        }
      ],
      "name": "approve",
      "outputs": [
        {
          "internalType": "bool",
          "name": "",
          "type": "bool"
        }
      ],
      "stateMutability": "nonpayable",
      "type": "function"
    },
    {
      "inputs": [
        {
          "internalType": "address",
          "name": "account",
          "type": "address"
        }
      ],
      "name": "balanceOf",
      "outputs": [
        {
          "internalType": "uint256",
          "name": "",
          "type": "uint256"
        }
      ],
      "stateMutability": "view",
      "type": "function"
    },
    {
      "inputs": [
        {
          "internalType": "uint256",
          "name": "amount",
          "type": "uint256"
        }
      ],
      "name": "burn",
      "outputs": [],
      "stateMutability": "nonpayable",
      "type": "function"
    },
    {
      "inputs": [
        {
          "internalType": "address",
          "name": "account",
          "type": "address"
        },
        {
          "internalType": "uint256",
          "name": "amount",
          "type": "uint256"
        }
      ],
      "name": "burnFrom",
      "outputs": [],
      "stateMutability": "nonpayable",
      "type": "function"
    },
    {
      "inputs": [],
      "name": "decimals",
      "outputs": [
        {
          "internalType": "uint8",
          "name": "",
          "type": "uint8"
        }
      ],
      "stateMutability": "view",
      "type": "function"
    },
    {
      "inputs": [
        {
          "internalType": "address",
          "name": "spender",
          "type": "address"
        },
        {
          "internalType": "uint256",
          "name": "subtractedValue",
          "type": "uint256"
        }
      ],
      "name": "decreaseAllowance",
      "outputs": [
        {
          "internalType": "bool",
          "name": "",
          "type": "bool"
        }
      ],
      "stateMutability": "nonpayable",
      "type": "function"
    },
    {
      "inputs": [
        {
          "internalType": "address",
          "name": "token",
          "type": "address"
        },
        {
          "internalType": "uint256",
          "name": "amount",
          "type": "uint256"
        }
      ],
      "name": "flashFee",
      "outputs": [
        {
          "internalType": "uint256",
          "name": "",
          "type": "uint256"
        }
      ],
      "stateMutability": "view",
      "type": "function"
    },
    {
      "inputs": [
        {
          "internalType": "contract IERC3156FlashBorrower",
          "name": "receiver",
          "type": "address"
        },
        {
          "internalType": "address",
          "name": "token",
          "type": "address"
        },
        {
          "internalType": "uint256",
          "name": "amount",
          "type": "uint256"
        },
        {
          "internalType": "bytes",
          "name": "data",
          "type": "bytes"
        }
      ],
      "name": "flashLoan",
      "outputs": [
        {
          "internalType": "bool",
          "name": "",
          "type": "bool"
        }
      ],
      "stateMutability": "nonpayable",
      "type": "function"
    },
    {
      "inputs": [
        {
          "internalType": "bytes32",
          "name": "role",
          "type": "bytes32"
        }
      ],
      "name": "getRoleAdmin",
      "outputs": [
        {
          "internalType": "bytes32",
          "name": "",
          "type": "bytes32"
        }
      ],
      "stateMutability": "view",
      "type": "function"
    },
    {
      "inputs": [
        {
          "internalType": "bytes32",
          "name": "role",
          "type": "bytes32"
        },
        {
          "internalType": "address",
          "name": "account",
          "type": "address"
        }
      ],
      "name": "grantRole",
      "outputs": [],
      "stateMutability": "nonpayable",
      "type": "function"
    },
    {
      "inputs": [
        {
          "internalType": "bytes32",
          "name": "role",
          "type": "bytes32"
        },
        {
          "internalType": "address",
          "name": "account",
          "type": "address"
        }
      ],
      "name": "hasRole",
      "outputs": [
        {
          "internalType": "bool",
          "name": "",
          "type": "bool"
        }
      ],
      "stateMutability": "view",
      "type": "function"
    },
    {
      "inputs": [
        {
          "internalType": "address",
          "name": "spender",
          "type": "address"
        },
        {
          "internalType": "uint256",
          "name": "addedValue",
          "type": "uint256"
        }
      ],
      "name": "increaseAllowance",
      "outputs": [
        {
          "internalType": "bool",
          "name": "",
          "type": "bool"
        }
      ],
      "stateMutability": "nonpayable",
      "type": "function"
    },
    {
      "inputs": [
        {
          "internalType": "address",
          "name": "token",
          "type": "address"
        }
      ],
      "name": "maxFlashLoan",
      "outputs": [
        {
          "internalType": "uint256",
          "name": "",
          "type": "uint256"
        }
      ],
      "stateMutability": "view",
      "type": "function"
    },
    {
      "inputs": [
        {
          "internalType": "address",
          "name": "to",
          "type": "address"
        },
        {
          "internalType": "uint256",
          "name": "amount",
          "type": "uint256"
        }
      ],
      "name": "mint",
      "outputs": [],
      "stateMutability": "nonpayable",
      "type": "function"
    },
    {
      "inputs": [],
      "name": "name",
      "outputs": [
        {
          "internalType": "string",
          "name": "",
          "type": "string"
        }
      ],
      "stateMutability": "view",
      "type": "function"
    },
    {
      "inputs": [],
      "name": "pause",
      "outputs": [],
      "stateMutability": "nonpayable",
      "type": "function"
    },
    {
      "inputs": [],
      "name": "paused",
      "outputs": [
        {
          "internalType": "bool",
          "name": "",
          "type": "bool"
        }
      ],
      "stateMutability": "view",
      "type": "function"
    },
    {
      "inputs": [
        {
          "internalType": "bytes32",
          "name": "role",
          "type": "bytes32"
        },
        {
          "internalType": "address",
          "name": "account",
          "type": "address"
        }
      ],
      "name": "renounceRole",
      "outputs": [],
      "stateMutability": "nonpayable",
      "type": "function"
    },
    {
      "inputs": [
        {
          "internalType": "bytes32",
          "name": "role",
          "type": "bytes32"
        },
        {
          "internalType": "address",
          "name": "account",
          "type": "address"
        }
      ],
      "name": "revokeRole",
      "outputs": [],
      "stateMutability": "nonpayable",
      "type": "function"
    },
    {
      "inputs": [
        {
          "internalType": "bytes4",
          "name": "interfaceId",
          "type": "bytes4"
        }
      ],
      "name": "supportsInterface",
      "outputs": [
        {
          "internalType": "bool",
          "name": "",
          "type": "bool"
        }
      ],
      "stateMutability": "view",
      "type": "function"
    },
    {
      "inputs": [],
      "name": "symbol",
      "outputs": [
        {
          "internalType": "string",
          "name": "",
          "type": "string"
        }
      ],
      "stateMutability": "view",
      "type": "function"
    },
    {
      "inputs": [],
      "name": "totalSupply",
      "outputs": [
        {
          "internalType": "uint256",
          "name": "",
          "type": "uint256"
        }
      ],
      "stateMutability": "view",
      "type": "function"
    },
    {
      "inputs": [
        {
          "internalType": "address",
          "name": "to",
          "type": "address"
        },
        {
          "internalType": "uint256",
          "name": "amount",
          "type": "uint256"
        }
      ],
      "name": "transfer",
      "outputs": [
        {
          "internalType": "bool",
          "name": "",
          "type": "bool"
        }
      ],
      "stateMutability": "nonpayable",
      "type": "function"
    },
    {
      "inputs": [
        {
          "internalType": "address",
          "name": "from",
          "type": "address"
        },
        {
          "internalType": "address",
          "name": "to",
          "type": "address"
        },
        {
          "internalType": "uint256",
          "name": "amount",
          "type": "uint256"
        }
      ],
      "name": "transferFrom",
      "outputs": [
        {
          "internalType": "bool",
          "name": "",
          "type": "bool"
        }
      ],
      "stateMutability": "nonpayable",
      "type": "function"
    },
    {
      "inputs": [],
      "name": "unpause",
      "outputs": [],
      "stateMutability": "nonpayable",
      "type": "function"
    }
  ],
  "bytecode": "0x60806040523480156200001157600080fd5b506040518060400160405280601081526020017f47616c61637469632052657365727665000000000000000000000000000000008152506040518060400160405280600481526020017f47414c52000000000000000000000000000000000000000000000000000000008152508160039080519060200190620000969291906200058f565b508060049080519060200190620000af9291906200058f565b5050506000600560006101000a81548160ff0219169083151502179055506001600681905550620000ea6000801b336200019360201b60201c565b6200011c7f65d7a28e3265b37a6474929f336521b332c1681b933f6cb9f3376673440d862a336200019360201b60201c565b6200015b33620001316200028560201b60201c565b600a6200013f9190620007d9565b629896806200014f91906200082a565b6200028e60201b60201c565b6200018d7f9f2df0fed2c77648de5860a4cc508cd0818c85b8b8a1ab4ceeef8d981c8956a6336200019360201b60201c565b62000ae2565b620001a58282620003fc60201b60201c565b620002815760016007600084815260200190815260200160002060000160008373ffffffffffffffffffffffffffffffffffffffff1673ffffffffffffffffffffffffffffffffffffffff16815260200190815260200160002060006101000a81548160ff021916908315150217905550620002266200046760201b60201c565b73ffffffffffffffffffffffffffffffffffffffff168173ffffffffffffffffffffffffffffffffffffffff16837f2f8788117e7eff1d82e926ec794901d17c78024a50270940304540a733656f0d60405160405180910390a45b5050565b60006012905090565b600073ffffffffffffffffffffffffffffffffffffffff168273ffffffffffffffffffffffffffffffffffffffff16141562000301576040517f08c379a0000000000000000000000000000000000000000000000000000000008152600401620002f890620008ec565b60405180910390fd5b62000315600083836200046f60201b60201c565b80600260008282546200032991906200090e565b92505081905550806000808473ffffffffffffffffffffffffffffffffffffffff1673ffffffffffffffffffffffffffffffffffffffff168152602001908152602001600020600082825401925050819055508173ffffffffffffffffffffffffffffffffffffffff16600073ffffffffffffffffffffffffffffffffffffffff167fddf252ad1be2c89b69c2b068fc378daa952ba7f163c4a11628f55a4df523b3ef83604051620003dc91906200097c565b60405180910390a3620003f860008383620004bc60201b60201c565b5050565b60006007600084815260200190815260200160002060000160008373ffffffffffffffffffffffffffffffffffffffff1673ffffffffffffffffffffffffffffffffffffffff16815260200190815260200160002060009054906101000a900460ff16905092915050565b600033905090565b6200047f620004c160201b60201c565b6200048f6200051660201b60201c565b620004a78383836200056960201b62000f151760201c565b620004b76200056e60201b60201c565b505050565b505050565b620004d16200057860201b60201c565b1562000514576040517f08c379a00000000000000000000000000000000000000000000000000000000081526004016200050b90620009e9565b60405180910390fd5b565b600260065414156200055f576040517f08c379a0000000000000000000000000000000000000000000000000000000008152600401620005569062000a5b565b60405180910390fd5b6002600681905550565b505050565b6001600681905550565b6000600560009054906101000a900460ff16905090565b8280546200059d9062000aac565b90600052602060002090601f016020900481019282620005c157600085556200060d565b82601f10620005dc57805160ff19168380011785556200060d565b828001600101855582156200060d579182015b828111156200060c578251825591602001919060010190620005ef565b5b5090506200061c919062000620565b5090565b5b808211156200063b57600081600090555060010162000621565b5090565b7f4e487b7100000000000000000000000000000000000000000000000000000000600052601160045260246000fd5b60008160011c9050919050565b6000808291508390505b6001851115620006cd57808604811115620006a557620006a46200063f565b5b6001851615620006b55780820291505b8081029050620006c5856200066e565b945062000685565b94509492505050565b600082620006e85760019050620007bb565b81620006f85760009050620007bb565b81600181146200071157600281146200071c5762000752565b6001915050620007bb565b60ff8411156200073157620007306200063f565b5b8360020a9150848211156200074b576200074a6200063f565b5b50620007bb565b5060208310610133831016604e8410600b84101617156200078c5782820a9050838111156200078657620007856200063f565b5b620007bb565b6200079b84848460016200067b565b92509050818404811115620007b557620007b46200063f565b5b81810290505b9392505050565b6000819050919050565b600060ff82169050919050565b6000620007e682620007c2565b9150620007f383620007cc565b9250620008227fffffffffffffffffffffffffffffffffffffffffffffffffffffffffffffffff8484620006d6565b905092915050565b60006200083782620007c2565b91506200084483620007c2565b9250817fffffffffffffffffffffffffffffffffffffffffffffffffffffffffffffffff048311821515161562000880576200087f6200063f565b5b828202905092915050565b600082825260208201905092915050565b7f45524332303a206d696e7420746f20746865207a65726f206164647265737300600082015250565b6000620008d4601f836200088b565b9150620008e1826200089c565b602082019050919050565b600060208201905081810360008301526200090781620008c5565b9050919050565b60006200091b82620007c2565b91506200092883620007c2565b9250827fffffffffffffffffffffffffffffffffffffffffffffffffffffffffffffffff0382111562000960576200095f6200063f565b5b828201905092915050565b6200097681620007c2565b82525050565b60006020820190506200099360008301846200096b565b92915050565b7f5061757361626c653a2070617573656400000000000000000000000000000000600082015250565b6000620009d16010836200088b565b9150620009de8262000999565b602082019050919050565b6000602082019050818103600083015262000a0481620009c2565b9050919050565b7f5265656e7472616e637947756172643a207265656e7472616e742063616c6c00600082015250565b600062000a43601f836200088b565b915062000a508262000a0b565b602082019050919050565b6000602082019050818103600083015262000a768162000a34565b9050919050565b7f4e487b7100000000000000000000000000000000000000000000000000000000600052602260045260246000fd5b6000600282049050600182168062000ac557607f821691505b6020821081141562000adc5762000adb62000a7d565b5b50919050565b61315b8062000af26000396000f3fe608060405234801561001057600080fd5b50600436106101cf5760003560e01c80635cffe9de11610104578063a217fddf116100a2578063d547741f11610071578063d547741f14610556578063d9d98ce414610572578063dd62ed3e146105a2578063e63ab1e9146105d2576101cf565b8063a217fddf146104ba578063a457c2d7146104d8578063a9059cbb14610508578063d539139314610538576101cf565b806379cc6790116100de57806379cc6790146104465780638456cb591461046257806391d148541461046c57806395d89b411461049c576101cf565b80635cffe9de146103b6578063613255ab146103e657806370a0823114610416576101cf565b8063313ce567116101715780633f4ba83a1161014b5780633f4ba83a1461035657806340c10f191461036057806342966c681461037c5780635c975abb14610398576101cf565b8063313ce567146102ec57806336568abe1461030a5780633950935114610326576101cf565b806318160ddd116101ad57806318160ddd1461025257806323b872dd14610270578063248a9ca3146102a05780632f2ff15d146102d0576101cf565b806301ffc9a7146101d457806306fdde0314610204578063095ea7b314610222575b600080fd5b6101ee60048036038101906101e99190611e94565b6105f0565b6040516101fb9190611edc565b60405180910390f35b61020c61066a565b6040516102199190611f90565b60405180910390f35b61023c60048036038101906102379190612046565b6106fc565b6040516102499190611edc565b60405180910390f35b61025a61071f565b6040516102679190612095565b60405180910390f35b61028a600480360381019061028591906120b0565b610729565b6040516102979190611edc565b60405180910390f35b6102ba60048036038101906102b59190612139565b610758565b6040516102c79190612175565b60405180910390f35b6102ea60048036038101906102e59190612190565b610778565b005b6102f4610799565b60405161030191906121ec565b60405180910390f35b610324600480360381019061031f9190612190565b6107a2565b005b610340600480360381019061033b9190612046565b610825565b60405161034d9190611edc565b60405180910390f35b61035e61085c565b005b61037a60048036038101906103759190612046565b610891565b005b61039660048036038101906103919190612207565b6108ca565b005b6103a06108de565b6040516103ad9190611edc565b60405180910390f35b6103d060048036038101906103cb91906122d7565b6108f5565b6040516103dd9190611edc565b60405180910390f35b61040060048036038101906103fb919061235f565b610af1565b60405161040d9190612095565b60405180910390f35b610430600480360381019061042b919061235f565b610b68565b60405161043d9190612095565b60405180910390f35b610460600480360381019061045b9190612046565b610bb0565b005b61046a610bd0565b005b61048660048036038101906104819190612190565b610c05565b6040516104939190611edc565b60405180910390f35b6104a4610c70565b6040516104b19190611f90565b60405180910390f35b6104c2610d02565b6040516104cf9190612175565b60405180910390f35b6104f260048036038101906104ed9190612046565b610d09565b6040516104ff9190611edc565b60405180910390f35b610522600480360381019061051d9190612046565b610d80565b60405161052f9190611edc565b60405180910390f35b610540610da3565b60405161054d9190612175565b60405180910390f35b610570600480360381019061056b9190612190565b610dc7565b005b61058c60048036038101906105879190612046565b610de8565b6040516105999190612095565b60405180910390f35b6105bc60048036038101906105b7919061238c565b610e6a565b6040516105c99190612095565b60405180910390f35b6105da610ef1565b6040516105e79190612175565b60405180910390f35b60007f7965db0b000000000000000000000000000000000000000000000000000000007bffffffffffffffffffffffffffffffffffffffffffffffffffffffff1916827bffffffffffffffffffffffffffffffffffffffffffffffffffffffff19161480610663575061066282610f1a565b5b9050919050565b606060038054610679906123fb565b80601f01602080910402602001604051908101604052809291908181526020018280546106a5906123fb565b80156106f25780601f106106c7576101008083540402835291602001916106f2565b820191906000526020600020905b8154815290600101906020018083116106d557829003601f168201915b5050505050905090565b600080610707610f84565b9050610714818585610f8c565b600191505092915050565b6000600254905090565b600080610734610f84565b9050610741858285611157565b61074c8585856111e3565b60019150509392505050565b600060076000838152602001908152602001600020600101549050919050565b61078182610758565b61078a8161145b565b610794838361146f565b505050565b60006012905090565b6107aa610f84565b73ffffffffffffffffffffffffffffffffffffffff168173ffffffffffffffffffffffffffffffffffffffff1614610817576040517f08c379a000000000000000000000000000000000000000000000000000000000815260040161080e9061249f565b60405180910390fd5b6108218282611550565b5050565b600080610830610f84565b90506108518185856108428589610e6a565b61084c91906124ee565b610f8c565b600191505092915050565b7f65d7a28e3265b37a6474929f336521b332c1681b933f6cb9f3376673440d862a6108868161145b565b61088e611632565b50565b7f9f2df0fed2c77648de5860a4cc508cd0818c85b8b8a1ab4ceeef8d981c8956a66108bb8161145b565b6108c58383611695565b505050565b6108db6108d5610f84565b826117ec565b50565b6000600560009054906101000a900460ff16905090565b600061090085610af1565b841115610942576040517f08c379a0000000000000000000000000000000000000000000000000000000008152600401610939906125b6565b60405180910390fd5b600061094e8686610de8565b905061095a8786611695565b7f439148f0bbc682ca079e46d6e2c2f0c1e3b820f1a291b069d8882abf8cf18dd98773ffffffffffffffffffffffffffffffffffffffff166323e30c8b338989868a8a6040518763ffffffff1660e01b81526004016109be96959493929190612632565b602060405180830381600087803b1580156109d857600080fd5b505af11580156109ec573d6000803e3d6000fd5b505050506040513d601f19601f82011682018060405250810190610a1091906126a3565b14610a50576040517f08c379a0000000000000000000000000000000000000000000000000000000008152600401610a4790612742565b60405180910390fd5b6000610a5a6119ba565b9050610a7288308489610a6d91906124ee565b611157565b6000821480610aad5750600073ffffffffffffffffffffffffffffffffffffffff168173ffffffffffffffffffffffffffffffffffffffff16145b15610acc57610ac7888388610ac291906124ee565b6117ec565b610ae2565b610ad688876117ec565b610ae18882846111e3565b5b60019250505095945050505050565b60003073ffffffffffffffffffffffffffffffffffffffff168273ffffffffffffffffffffffffffffffffffffffff1614610b2d576000610b61565b610b3561071f565b7fffffffffffffffffffffffffffffffffffffffffffffffffffffffffffffffff610b609190612762565b5b9050919050565b60008060008373ffffffffffffffffffffffffffffffffffffffff1673ffffffffffffffffffffffffffffffffffffffff168152602001908152602001600020549050919050565b610bc282610bbc610f84565b83611157565b610bcc82826117ec565b5050565b7f65d7a28e3265b37a6474929f336521b332c1681b933f6cb9f3376673440d862a610bfa8161145b565b610c026119bf565b50565b60006007600084815260200190815260200160002060000160008373ffffffffffffffffffffffffffffffffffffffff1673ffffffffffffffffffffffffffffffffffffffff16815260200190815260200160002060009054906101000a900460ff16905092915050565b606060048054610c7f906123fb565b80601f0160208091040260200160405190810160405280929190818152602001828054610cab906123fb565b8015610cf85780601f10610ccd57610100808354040283529160200191610cf8565b820191906000526020600020905b815481529060010190602001808311610cdb57829003601f168201915b5050505050905090565b6000801b81565b600080610d14610f84565b90506000610d228286610e6a565b905083811015610d67576040517f08c379a0000000000000000000000000000000000000000000000000000000008152600401610d5e90612808565b60405180910390fd5b610d748286868403610f8c565b60019250505092915050565b600080610d8b610f84565b9050610d988185856111e3565b600191505092915050565b7f9f2df0fed2c77648de5860a4cc508cd0818c85b8b8a1ab4ceeef8d981c8956a681565b610dd082610758565b610dd98161145b565b610de38383611550565b505050565b60003073ffffffffffffffffffffffffffffffffffffffff168373ffffffffffffffffffffffffffffffffffffffff1614610e58576040517f08c379a0000000000000000000000000000000000000000000000000000000008152600401610e4f90612874565b60405180910390fd5b610e628383611a22565b905092915050565b6000600160008473ffffffffffffffffffffffffffffffffffffffff1673ffffffffffffffffffffffffffffffffffffffff16815260200190815260200160002060008373ffffffffffffffffffffffffffffffffffffffff1673ffffffffffffffffffffffffffffffffffffffff16815260200190815260200160002054905092915050565b7f65d7a28e3265b37a6474929f336521b332c1681b933f6cb9f3376673440d862a81565b505050565b60007f01ffc9a7000000000000000000000000000000000000000000000000000000007bffffffffffffffffffffffffffffffffffffffffffffffffffffffff1916827bffffffffffffffffffffffffffffffffffffffffffffffffffffffff1916149050919050565b600033905090565b600073ffffffffffffffffffffffffffffffffffffffff168373ffffffffffffffffffffffffffffffffffffffff161415610ffc576040517f08c379a0000000000000000000000000000000000000000000000000000000008152600401610ff390612906565b60405180910390fd5b600073ffffffffffffffffffffffffffffffffffffffff168273ffffffffffffffffffffffffffffffffffffffff16141561106c576040517f08c379a000000000000000000000000000000000000000000000000000000000815260040161106390612998565b60405180910390fd5b80600160008573ffffffffffffffffffffffffffffffffffffffff1673ffffffffffffffffffffffffffffffffffffffff16815260200190815260200160002060008473ffffffffffffffffffffffffffffffffffffffff1673ffffffffffffffffffffffffffffffffffffffff168152602001908152602001600020819055508173ffffffffffffffffffffffffffffffffffffffff168373ffffffffffffffffffffffffffffffffffffffff167f8c5be1e5ebec7d5bd14f71427d1e84f3dd0314c0f7b2291e5b200ac8c7c3b9258360405161114a9190612095565b60405180910390a3505050565b60006111638484610e6a565b90507fffffffffffffffffffffffffffffffffffffffffffffffffffffffffffffffff81146111dd57818110156111cf576040517f08c379a00000000000000000000000000000000000000000000000000000000081526004016111c690612a04565b60405180910390fd5b6111dc8484848403610f8c565b5b50505050565b600073ffffffffffffffffffffffffffffffffffffffff168373ffffffffffffffffffffffffffffffffffffffff161415611253576040517f08c379a000000000000000000000000000000000000000000000000000000000815260040161124a90612a96565b60405180910390fd5b600073ffffffffffffffffffffffffffffffffffffffff168273ffffffffffffffffffffffffffffffffffffffff1614156112c3576040517f08c379a00000000000000000000000000000000000000000000000000000000081526004016112ba90612b28565b60405180910390fd5b6112ce838383611a2a565b60008060008573ffffffffffffffffffffffffffffffffffffffff1673ffffffffffffffffffffffffffffffffffffffff16815260200190815260200160002054905081811015611354576040517f08c379a000000000000000000000000000000000000000000000000000000000815260040161134b90612bba565b60405180910390fd5b8181036000808673ffffffffffffffffffffffffffffffffffffffff1673ffffffffffffffffffffffffffffffffffffffff16815260200190815260200160002081905550816000808573ffffffffffffffffffffffffffffffffffffffff1673ffffffffffffffffffffffffffffffffffffffff168152602001908152602001600020600082825401925050819055508273ffffffffffffffffffffffffffffffffffffffff168473ffffffffffffffffffffffffffffffffffffffff167fddf252ad1be2c89b69c2b068fc378daa952ba7f163c4a11628f55a4df523b3ef846040516114429190612095565b60405180910390a3611455848484611a52565b50505050565b61146c81611467610f84565b611a57565b50565b6114798282610c05565b61154c5760016007600084815260200190815260200160002060000160008373ffffffffffffffffffffffffffffffffffffffff1673ffffffffffffffffffffffffffffffffffffffff16815260200190815260200160002060006101000a81548160ff0219169083151502179055506114f1610f84565b73ffffffffffffffffffffffffffffffffffffffff168173ffffffffffffffffffffffffffffffffffffffff16837f2f8788117e7eff1d82e926ec794901d17c78024a50270940304540a733656f0d60405160405180910390a45b5050565b61155a8282610c05565b1561162e5760006007600084815260200190815260200160002060000160008373ffffffffffffffffffffffffffffffffffffffff1673ffffffffffffffffffffffffffffffffffffffff16815260200190815260200160002060006101000a81548160ff0219169083151502179055506115d3610f84565b73ffffffffffffffffffffffffffffffffffffffff168173ffffffffffffffffffffffffffffffffffffffff16837ff6391f5c32d9c69d2a47ea670b442974b53935d1edc7fd64eb21e047a839171b60405160405180910390a45b5050565b61163a611adc565b6000600560006101000a81548160ff0219169083151502179055507f5db9ee0a495bf2e6ff9c91a7834c1ba4fdd244a5e8aa4e537bd38aeae4b073aa61167e610f84565b60405161168b9190612bda565b60405180910390a1565b600073ffffffffffffffffffffffffffffffffffffffff168273ffffffffffffffffffffffffffffffffffffffff161415611705576040517f08c379a00000000000000000000000000000000000000000000000000000000081526004016116fc90612c41565b60405180910390fd5b61171160008383611a2a565b806002600082825461172391906124ee565b92505081905550806000808473ffffffffffffffffffffffffffffffffffffffff1673ffffffffffffffffffffffffffffffffffffffff168152602001908152602001600020600082825401925050819055508173ffffffffffffffffffffffffffffffffffffffff16600073ffffffffffffffffffffffffffffffffffffffff167fddf252ad1be2c89b69c2b068fc378daa952ba7f163c4a11628f55a4df523b3ef836040516117d49190612095565b60405180910390a36117e860008383611a52565b5050565b600073ffffffffffffffffffffffffffffffffffffffff168273ffffffffffffffffffffffffffffffffffffffff16141561185c576040517f08c379a000000000000000000000000000000000000000000000000000000000815260040161185390612cd3565b60405180910390fd5b61186882600083611a2a565b60008060008473ffffffffffffffffffffffffffffffffffffffff1673ffffffffffffffffffffffffffffffffffffffff168152602001908152602001600020549050818110156118ee576040517f08c379a00000000000000000000000000000000000000000000000000000000081526004016118e590612d65565b60405180910390fd5b8181036000808573ffffffffffffffffffffffffffffffffffffffff1673ffffffffffffffffffffffffffffffffffffffff1681526020019081526020016000208190555081600260008282540392505081905550600073ffffffffffffffffffffffffffffffffffffffff168373ffffffffffffffffffffffffffffffffffffffff167fddf252ad1be2c89b69c2b068fc378daa952ba7f163c4a11628f55a4df523b3ef846040516119a19190612095565b60405180910390a36119b583600084611a52565b505050565b600090565b6119c7611b25565b6001600560006101000a81548160ff0219169083151502179055507f62e78cea01bee320cd4e420270b5ea74000d11b0c9f74754ebdbfc544b05a258611a0b610f84565b604051611a189190612bda565b60405180910390a1565b600092915050565b611a32611b25565b611a3a611b6f565b611a45838383610f15565b611a4d611bbf565b505050565b505050565b611a618282610c05565b611ad857611a6e81611bc9565b611a7c8360001c6020611bf6565b604051602001611a8d929190612e59565b6040516020818303038152906040526040517f08c379a0000000000000000000000000000000000000000000000000000000008152600401611acf9190611f90565b60405180910390fd5b5050565b611ae46108de565b611b23576040517f08c379a0000000000000000000000000000000000000000000000000000000008152600401611b1a90612edf565b60405180910390fd5b565b611b2d6108de565b15611b6d576040517f08c379a0000000000000000000000000000000000000000000000000000000008152600401611b6490612f4b565b60405180910390fd5b565b60026006541415611bb5576040517f08c379a0000000000000000000000000000000000000000000000000000000008152600401611bac90612fb7565b60405180910390fd5b6002600681905550565b6001600681905550565b6060611bef8273ffffffffffffffffffffffffffffffffffffffff16601460ff16611bf6565b9050919050565b606060006002836002611c099190612fd7565b611c1391906124ee565b67ffffffffffffffff811115611c2c57611c2b613031565b5b6040519080825280601f01601f191660200182016040528015611c5e5781602001600182028036833780820191505090505b5090507f300000000000000000000000000000000000000000000000000000000000000081600081518110611c9657611c95613060565b5b60200101907effffffffffffffffffffffffffffffffffffffffffffffffffffffffffffff1916908160001a9053507f780000000000000000000000000000000000000000000000000000000000000081600181518110611cfa57611cf9613060565b5b60200101907effffffffffffffffffffffffffffffffffffffffffffffffffffffffffffff1916908160001a90535060006001846002611d3a9190612fd7565b611d4491906124ee565b90505b6001811115611de4577f3031323334353637383961626364656600000000000000000000000000000000600f861660108110611d8657611d85613060565b5b1a60f81b828281518110611d9d57611d9c613060565b5b60200101907effffffffffffffffffffffffffffffffffffffffffffffffffffffffffffff1916908160001a905350600485901c945080611ddd9061308f565b9050611d47565b5060008414611e28576040517f08c379a0000000000000000000000000000000000000000000000000000000008152600401611e1f90613105565b60405180910390fd5b8091505092915050565b600080fd5b600080fd5b60007fffffffff0000000000000000000000000000000000000000000000000000000082169050919050565b611e7181611e3c565b8114611e7c57600080fd5b50565b600081359050611e8e81611e68565b92915050565b600060208284031215611eaa57611ea9611e32565b5b6000611eb884828501611e7f565b91505092915050565b60008115159050919050565b611ed681611ec1565b82525050565b6000602082019050611ef16000830184611ecd565b92915050565b600081519050919050565b600082825260208201905092915050565b60005b83811015611f31578082015181840152602081019050611f16565b83811115611f40576000848401525b50505050565b6000601f19601f8301169050919050565b6000611f6282611ef7565b611f6c8185611f02565b9350611f7c818560208601611f13565b611f8581611f46565b840191505092915050565b60006020820190508181036000830152611faa8184611f57565b905092915050565b600073ffffffffffffffffffffffffffffffffffffffff82169050919050565b6000611fdd82611fb2565b9050919050565b611fed81611fd2565b8114611ff857600080fd5b50565b60008135905061200a81611fe4565b92915050565b6000819050919050565b61202381612010565b811461202e57600080fd5b50565b6000813590506120408161201a565b92915050565b6000806040838503121561205d5761205c611e32565b5b600061206b85828601611ffb565b925050602061207c85828601612031565b9150509250929050565b61208f81612010565b82525050565b60006020820190506120aa6000830184612086565b92915050565b6000806000606084860312156120c9576120c8611e32565b5b60006120d786828701611ffb565b93505060206120e886828701611ffb565b92505060406120f986828701612031565b9150509250925092565b6000819050919050565b61211681612103565b811461212157600080fd5b50565b6000813590506121338161210d565b92915050565b60006020828403121561214f5761214e611e32565b5b600061215d84828501612124565b91505092915050565b61216f81612103565b82525050565b600060208201905061218a6000830184612166565b92915050565b600080604083850312156121a7576121a6611e32565b5b60006121b585828601612124565b92505060206121c685828601611ffb565b9150509250929050565b600060ff82169050919050565b6121e6816121d0565b82525050565b600060208201905061220160008301846121dd565b92915050565b60006020828403121561221d5761221c611e32565b5b600061222b84828501612031565b91505092915050565b600061223f82611fd2565b9050919050565b61224f81612234565b811461225a57600080fd5b50565b60008135905061226c81612246565b92915050565b600080fd5b600080fd5b600080fd5b60008083601f84011261229757612296612272565b5b8235905067ffffffffffffffff8111156122b4576122b3612277565b5b6020830191508360018202830111156122d0576122cf61227c565b5b9250929050565b6000806000806000608086880312156122f3576122f2611e32565b5b60006123018882890161225d565b955050602061231288828901611ffb565b945050604061232388828901612031565b935050606086013567ffffffffffffffff81111561234457612343611e37565b5b61235088828901612281565b92509250509295509295909350565b60006020828403121561237557612374611e32565b5b600061238384828501611ffb565b91505092915050565b600080604083850312156123a3576123a2611e32565b5b60006123b185828601611ffb565b92505060206123c285828601611ffb565b9150509250929050565b7f4e487b7100000000000000000000000000000000000000000000000000000000600052602260045260246000fd5b6000600282049050600182168061241357607f821691505b60208210811415612427576124266123cc565b5b50919050565b7f416363657373436f6e74726f6c3a2063616e206f6e6c792072656e6f756e636560008201527f20726f6c657320666f722073656c660000000000000000000000000000000000602082015250565b6000612489602f83611f02565b91506124948261242d565b604082019050919050565b600060208201905081810360008301526124b88161247c565b9050919050565b7f4e487b7100000000000000000000000000000000000000000000000000000000600052601160045260246000fd5b60006124f982612010565b915061250483612010565b9250827fffffffffffffffffffffffffffffffffffffffffffffffffffffffffffffffff03821115612539576125386124bf565b5b828201905092915050565b7f4552433230466c6173684d696e743a20616d6f756e742065786365656473206d60008201527f6178466c6173684c6f616e000000000000000000000000000000000000000000602082015250565b60006125a0602b83611f02565b91506125ab82612544565b604082019050919050565b600060208201905081810360008301526125cf81612593565b9050919050565b6125df81611fd2565b82525050565b600082825260208201905092915050565b82818337600083830152505050565b600061261183856125e5565b935061261e8385846125f6565b61262783611f46565b840190509392505050565b600060a08201905061264760008301896125d6565b61265460208301886125d6565b6126616040830187612086565b61266e6060830186612086565b8181036080830152612681818486612605565b9050979650505050505050565b60008151905061269d8161210d565b92915050565b6000602082840312156126b9576126b8611e32565b5b60006126c78482850161268e565b91505092915050565b7f4552433230466c6173684d696e743a20696e76616c69642072657475726e207660008201527f616c756500000000000000000000000000000000000000000000000000000000602082015250565b600061272c602483611f02565b9150612737826126d0565b604082019050919050565b6000602082019050818103600083015261275b8161271f565b9050919050565b600061276d82612010565b915061277883612010565b92508282101561278b5761278a6124bf565b5b828203905092915050565b7f45524332303a2064656372656173656420616c6c6f77616e63652062656c6f7760008201527f207a65726f000000000000000000000000000000000000000000000000000000602082015250565b60006127f2602583611f02565b91506127fd82612796565b604082019050919050565b60006020820190508181036000830152612821816127e5565b9050919050565b7f4552433230466c6173684d696e743a2077726f6e6720746f6b656e0000000000600082015250565b600061285e601b83611f02565b915061286982612828565b602082019050919050565b6000602082019050818103600083015261288d81612851565b9050919050565b7f45524332303a20617070726f76652066726f6d20746865207a65726f2061646460008201527f7265737300000000000000000000000000000000000000000000000000000000602082015250565b60006128f0602483611f02565b91506128fb82612894565b604082019050919050565b6000602082019050818103600083015261291f816128e3565b9050919050565b7f45524332303a20617070726f766520746f20746865207a65726f20616464726560008201527f7373000000000000000000000000000000000000000000000000000000000000602082015250565b6000612982602283611f02565b915061298d82612926565b604082019050919050565b600060208201905081810360008301526129b181612975565b9050919050565b7f45524332303a20696e73756666696369656e7420616c6c6f77616e6365000000600082015250565b60006129ee601d83611f02565b91506129f9826129b8565b602082019050919050565b60006020820190508181036000830152612a1d816129e1565b9050919050565b7f45524332303a207472616e736665722066726f6d20746865207a65726f20616460008201527f6472657373000000000000000000000000000000000000000000000000000000602082015250565b6000612a80602583611f02565b9150612a8b82612a24565b604082019050919050565b60006020820190508181036000830152612aaf81612a73565b9050919050565b7f45524332303a207472616e7366657220746f20746865207a65726f206164647260008201527f6573730000000000000000000000000000000000000000000000000000000000602082015250565b6000612b12602383611f02565b9150612b1d82612ab6565b604082019050919050565b60006020820190508181036000830152612b4181612b05565b9050919050565b7f45524332303a207472616e7366657220616d6f756e742065786365656473206260008201527f616c616e63650000000000000000000000000000000000000000000000000000602082015250565b6000612ba4602683611f02565b9150612baf82612b48565b604082019050919050565b60006020820190508181036000830152612bd381612b97565b9050919050565b6000602082019050612bef60008301846125d6565b92915050565b7f45524332303a206d696e7420746f20746865207a65726f206164647265737300600082015250565b6000612c2b601f83611f02565b9150612c3682612bf5565b602082019050919050565b60006020820190508181036000830152612c5a81612c1e565b9050919050565b7f45524332303a206275726e2066726f6d20746865207a65726f2061646472657360008201527f7300000000000000000000000000000000000000000000000000000000000000602082015250565b6000612cbd602183611f02565b9150612cc882612c61565b604082019050919050565b60006020820190508181036000830152612cec81612cb0565b9050919050565b7f45524332303a206275726e20616d6f756e7420657863656564732062616c616e60008201527f6365000000000000000000000000000000000000000000000000000000000000602082015250565b6000612d4f602283611f02565b9150612d5a82612cf3565b604082019050919050565b60006020820190508181036000830152612d7e81612d42565b9050919050565b600081905092915050565b7f416363657373436f6e74726f6c3a206163636f756e7420000000000000000000600082015250565b6000612dc6601783612d85565b9150612dd182612d90565b601782019050919050565b6000612de782611ef7565b612df18185612d85565b9350612e01818560208601611f13565b80840191505092915050565b7f206973206d697373696e6720726f6c6520000000000000000000000000000000600082015250565b6000612e43601183612d85565b9150612e4e82612e0d565b601182019050919050565b6000612e6482612db9565b9150612e708285612ddc565b9150612e7b82612e36565b9150612e878284612ddc565b91508190509392505050565b7f5061757361626c653a206e6f7420706175736564000000000000000000000000600082015250565b6000612ec9601483611f02565b9150612ed482612e93565b602082019050919050565b60006020820190508181036000830152612ef881612ebc565b9050919050565b7f5061757361626c653a2070617573656400000000000000000000000000000000600082015250565b6000612f35601083611f02565b9150612f4082612eff565b602082019050919050565b60006020820190508181036000830152612f6481612f28565b9050919050565b7f5265656e7472616e637947756172643a207265656e7472616e742063616c6c00600082015250565b6000612fa1601f83611f02565b9150612fac82612f6b565b602082019050919050565b60006020820190508181036000830152612fd081612f94565b9050919050565b6000612fe282612010565b9150612fed83612010565b9250817fffffffffffffffffffffffffffffffffffffffffffffffffffffffffffffffff0483118215151615613026576130256124bf565b5b828202905092915050565b7f4e487b7100000000000000000000000000000000000000000000000000000000600052604160045260246000fd5b7f4e487b7100000000000000000000000000000000000000000000000000000000600052603260045260246000fd5b600061309a82612010565b915060008214156130ae576130ad6124bf565b5b600182039050919050565b7f537472696e67733a20686578206c656e67746820696e73756666696369656e74600082015250565b60006130ef602083611f02565b91506130fa826130b9565b602082019050919050565b6000602082019050818103600083015261311e816130e2565b905091905056fea26469706673582212201d93cb1ed78bf071dd146dddf8b4e93c4aead56a765c8f3a5adb4947ce77c46664736f6c63430008090033",
  "linkReferences": {},
  "deployedLinkReferences": {}
}