{
  "_format": "hh-sol-artifact-1",
  "contractName": "ICO",
  "sourceName": "contracts/ICO.sol",
  "abi": [
    {
      "inputs": [
        {
          "internalType": "address",
          "name": "_daoToken",
          "type": "address"
        },
        {
          "internalType": "uint256",
          "name": "_maxIcoTokens",
          "type": "uint256"
        }
      ],
      "stateMutability": "nonpayable",
      "type": "constructor"
    },
    {
      "anonymous": false,
      "inputs": [
        {
          "indexed": false,
          "internalType": "uint256",
          "name": "newExchangeRate",
          "type": "uint256"
        }
      ],
      "name": "ExchangeRateEdited",
      "type": "event"
    },
    {
      "anonymous": false,
      "inputs": [
        {
          "indexed": true,
          "internalType": "uint256",
          "name": "startTime",
          "type": "uint256"
        },
        {
          "indexed": true,
          "internalType": "uint256",
          "name": "endTime",
          "type": "uint256"
        }
      ],
      "name": "IcoTimeSet",
      "type": "event"
    },
    {
      "anonymous": false,
      "inputs": [
        {
          "indexed": true,
          "internalType": "address",
          "name": "investorAddress",
          "type": "address"
        }
      ],
      "name": "InvestorRemoved",
      "type": "event"
    },
    {
      "anonymous": false,
      "inputs": [
        {
          "indexed": true,
          "internalType": "bytes32",
          "name": "role",
          "type": "bytes32"
        },
        {
          "indexed": true,
          "internalType": "bytes32",
          "name": "previousAdminRole",
          "type": "bytes32"
        },
        {
          "indexed": true,
          "internalType": "bytes32",
          "name": "newAdminRole",
          "type": "bytes32"
        }
      ],
      "name": "RoleAdminChanged",
      "type": "event"
    },
    {
      "anonymous": false,
      "inputs": [
        {
          "indexed": true,
          "internalType": "bytes32",
          "name": "role",
          "type": "bytes32"
        },
        {
          "indexed": true,
          "internalType": "address",
          "name": "account",
          "type": "address"
        },
        {
          "indexed": true,
          "internalType": "address",
          "name": "sender",
          "type": "address"
        }
      ],
      "name": "RoleGranted",
      "type": "event"
    },
    {
      "anonymous": false,
      "inputs": [
        {
          "indexed": true,
          "internalType": "bytes32",
          "name": "role",
          "type": "bytes32"
        },
        {
          "indexed": true,
          "internalType": "address",
          "name": "account",
          "type": "address"
        },
        {
          "indexed": true,
          "internalType": "address",
          "name": "sender",
          "type": "address"
        }
      ],
      "name": "RoleRevoked",
      "type": "event"
    },
    {
      "anonymous": false,
      "inputs": [
        {
          "indexed": true,
          "internalType": "address",
          "name": "investor",
          "type": "address"
        },
        {
          "indexed": false,
          "internalType": "uint256",
          "name": "ethAmount",
          "type": "uint256"
        },
        {
          "indexed": false,
          "internalType": "uint256",
          "name": "tokenAmount",
          "type": "uint256"
        }
      ],
      "name": "TokensPurchased",
      "type": "event"
    },
    {
      "anonymous": false,
      "inputs": [
        {
          "indexed": true,
          "internalType": "address",
          "name": "withdrawer",
          "type": "address"
        },
        {
          "indexed": false,
          "internalType": "uint256",
          "name": "amount",
          "type": "uint256"
        }
      ],
      "name": "Withdraw",
      "type": "event"
    },
    {
      "inputs": [],
      "name": "DEFAULT_ADMIN_ROLE",
      "outputs": [
        {
          "internalType": "bytes32",
          "name": "",
          "type": "bytes32"
        }
      ],
      "stateMutability": "view",
      "type": "function"
    },
    {
      "inputs": [],
      "name": "INVESTOR_ROLE",
      "outputs": [
        {
          "internalType": "bytes32",
          "name": "",
          "type": "bytes32"
        }
      ],
      "stateMutability": "view",
      "type": "function"
    },
    {
      "inputs": [],
      "name": "MINTER_ROLE",
      "outputs": [
        {
          "internalType": "bytes32",
          "name": "",
          "type": "bytes32"
        }
      ],
      "stateMutability": "view",
      "type": "function"
    },
    {
      "inputs": [],
      "name": "PAUSER_ROLE",
      "outputs": [
        {
          "internalType": "bytes32",
          "name": "",
          "type": "bytes32"
        }
      ],
      "stateMutability": "view",
      "type": "function"
    },
    {
      "inputs": [],
      "name": "buyTokens",
      "outputs": [],
      "stateMutability": "payable",
      "type": "function"
    },
    {
      "inputs": [],
      "name": "daoToken",
      "outputs": [
        {
          "internalType": "contract IERC20",
          "name": "",
          "type": "address"
        }
      ],
      "stateMutability": "view",
      "type": "function"
    },
    {
      "inputs": [
        {
          "internalType": "uint256",
          "name": "newExchangeRate",
          "type": "uint256"
        }
      ],
      "name": "editExchangeRate",
      "outputs": [],
      "stateMutability": "nonpayable",
      "type": "function"
    },
    {
      "inputs": [],
      "name": "endTime",
      "outputs": [
        {
          "internalType": "uint256",
          "name": "",
          "type": "uint256"
        }
      ],
      "stateMutability": "view",
      "type": "function"
    },
    {
      "inputs": [
        {
          "internalType": "bytes32",
          "name": "role",
          "type": "bytes32"
        }
      ],
      "name": "getRoleAdmin",
      "outputs": [
        {
          "internalType": "bytes32",
          "name": "",
          "type": "bytes32"
        }
      ],
      "stateMutability": "view",
      "type": "function"
    },
    {
      "inputs": [
        {
          "internalType": "bytes32",
          "name": "role",
          "type": "bytes32"
        },
        {
          "internalType": "address",
          "name": "account",
          "type": "address"
        }
      ],
      "name": "grantRole",
      "outputs": [],
      "stateMutability": "nonpayable",
      "type": "function"
    },
    {
      "inputs": [
        {
          "internalType": "bytes32",
          "name": "role",
          "type": "bytes32"
        },
        {
          "internalType": "address",
          "name": "account",
          "type": "address"
        }
      ],
      "name": "hasRole",
      "outputs": [
        {
          "internalType": "bool",
          "name": "",
          "type": "bool"
        }
      ],
      "stateMutability": "view",
      "type": "function"
    },
    {
      "inputs": [
        {
          "internalType": "address",
          "name": "",
          "type": "address"
        }
      ],
      "name": "investors",
      "outputs": [
        {
          "internalType": "address",
          "name": "investorAddress",
          "type": "address"
        },
        {
          "internalType": "uint256",
          "name": "investmentAmount",
          "type": "uint256"
        },
        {
          "internalType": "uint256",
          "name": "dateOfInvestment",
          "type": "uint256"
        }
      ],
      "stateMutability": "view",
      "type": "function"
    },
    {
      "inputs": [],
      "name": "maxIcoTokens",
      "outputs": [
        {
          "internalType": "uint256",
          "name": "",
          "type": "uint256"
        }
      ],
      "stateMutability": "view",
      "type": "function"
    },
    {
      "inputs": [
        {
          "internalType": "address",
          "name": "_investorAddress",
          "type": "address"
        }
      ],
      "name": "removeInvestor",
      "outputs": [],
      "stateMutability": "nonpayable",
      "type": "function"
    },
    {
      "inputs": [
        {
          "internalType": "bytes32",
          "name": "role",
          "type": "bytes32"
        },
        {
          "internalType": "address",
          "name": "account",
          "type": "address"
        }
      ],
      "name": "renounceRole",
      "outputs": [],
      "stateMutability": "nonpayable",
      "type": "function"
    },
    {
      "inputs": [
        {
          "internalType": "bytes32",
          "name": "role",
          "type": "bytes32"
        },
        {
          "internalType": "address",
          "name": "account",
          "type": "address"
        }
      ],
      "name": "revokeRole",
      "outputs": [],
      "stateMutability": "nonpayable",
      "type": "function"
    },
    {
      "inputs": [
        {
          "internalType": "uint256",
          "name": "_startTime",
          "type": "uint256"
        },
        {
          "internalType": "uint256",
          "name": "_endTime",
          "type": "uint256"
        }
      ],
      "name": "setICOTime",
      "outputs": [],
      "stateMutability": "nonpayable",
      "type": "function"
    },
    {
      "inputs": [],
      "name": "startTime",
      "outputs": [
        {
          "internalType": "uint256",
          "name": "",
          "type": "uint256"
        }
      ],
      "stateMutability": "view",
      "type": "function"
    },
    {
      "inputs": [
        {
          "internalType": "bytes4",
          "name": "interfaceId",
          "type": "bytes4"
        }
      ],
      "name": "supportsInterface",
      "outputs": [
        {
          "internalType": "bool",
          "name": "",
          "type": "bool"
        }
      ],
      "stateMutability": "view",
      "type": "function"
    },
    {
      "inputs": [],
      "name": "tokenExchangeRate",
      "outputs": [
        {
          "internalType": "uint256",
          "name": "",
          "type": "uint256"
        }
      ],
      "stateMutability": "view",
      "type": "function"
    },
    {
      "inputs": [],
      "name": "totalInvestment",
      "outputs": [
        {
          "internalType": "uint256",
          "name": "",
          "type": "uint256"
        }
      ],
      "stateMutability": "view",
      "type": "function"
    },
    {
      "inputs": [],
      "name": "totalInvestors",
      "outputs": [
        {
          "internalType": "uint256",
          "name": "",
          "type": "uint256"
        }
      ],
      "stateMutability": "view",
      "type": "function"
    }
  ],
  "bytecode": "0x608060405260806008553480156200001657600080fd5b50604051620024903803806200249083398181016040528101906200003c919062000346565b6001808190555081600260006101000a81548173ffffffffffffffffffffffffffffffffffffffff021916908373ffffffffffffffffffffffffffffffffffffffff16021790555080600981905550620000a06000801b336200013e60201b60201c565b620000d27f65d7a28e3265b37a6474929f336521b332c1681b933f6cb9f3376673440d862a336200013e60201b60201c565b620001047f9f2df0fed2c77648de5860a4cc508cd0818c85b8b8a1ab4ceeef8d981c8956a6336200013e60201b60201c565b620001367fb165298935924f540e4181c03493a5d686c54a0aaeb3f6216de85b7ffbba7738336200013e60201b60201c565b50506200038d565b6200015082826200022f60201b60201c565b6200022b57600160008084815260200190815260200160002060000160008373ffffffffffffffffffffffffffffffffffffffff1673ffffffffffffffffffffffffffffffffffffffff16815260200190815260200160002060006101000a81548160ff021916908315150217905550620001d06200029960201b60201c565b73ffffffffffffffffffffffffffffffffffffffff168173ffffffffffffffffffffffffffffffffffffffff16837f2f8788117e7eff1d82e926ec794901d17c78024a50270940304540a733656f0d60405160405180910390a45b5050565b600080600084815260200190815260200160002060000160008373ffffffffffffffffffffffffffffffffffffffff1673ffffffffffffffffffffffffffffffffffffffff16815260200190815260200160002060009054906101000a900460ff16905092915050565b600033905090565b600080fd5b600073ffffffffffffffffffffffffffffffffffffffff82169050919050565b6000620002d382620002a6565b9050919050565b620002e581620002c6565b8114620002f157600080fd5b50565b6000815190506200030581620002da565b92915050565b6000819050919050565b62000320816200030b565b81146200032c57600080fd5b50565b600081519050620003408162000315565b92915050565b6000806040838503121562000360576200035f620002a1565b5b60006200037085828601620002f4565b925050602062000383858286016200032f565b9150509250929050565b6120f3806200039d6000396000f3fe6080604052600436106101355760003560e01c806376082a5e116100ab578063a217fddf1161006f578063a217fddf1461042c578063d0febe4c14610457578063d539139314610461578063d547741f1461048c578063e5aab718146104b5578063e63ab1e9146104de57610135565b806376082a5e1461034557806378e97925146103705780638633aa6b1461039b57806391d14854146103c657806394681e371461040357610135565b80633197cbb6116100fd5780633197cbb61461023357806336568abe1461025e5780634172d0801461028757806342714978146102b25780634914b030146102db5780636f7bc9be1461030657610135565b806301ffc9a71461013a57806310ea13df14610177578063248a9ca3146101a257806329b8caff146101df5780632f2ff15d1461020a575b600080fd5b34801561014657600080fd5b50610161600480360381019061015c91906114df565b610509565b60405161016e9190611527565b60405180910390f35b34801561018357600080fd5b5061018c610583565b604051610199919061155b565b60405180910390f35b3480156101ae57600080fd5b506101c960048036038101906101c491906115ac565b610589565b6040516101d691906115e8565b60405180910390f35b3480156101eb57600080fd5b506101f46105a8565b604051610201919061155b565b60405180910390f35b34801561021657600080fd5b50610231600480360381019061022c9190611661565b6105ae565b005b34801561023f57600080fd5b506102486105cf565b604051610255919061155b565b60405180910390f35b34801561026a57600080fd5b5061028560048036038101906102809190611661565b6105d5565b005b34801561029357600080fd5b5061029c610658565b6040516102a9919061155b565b60405180910390f35b3480156102be57600080fd5b506102d960048036038101906102d491906116a1565b61065e565b005b3480156102e757600080fd5b506102f061089a565b6040516102fd919061172d565b60405180910390f35b34801561031257600080fd5b5061032d600480360381019061032891906116a1565b6108c0565b60405161033c93929190611757565b60405180910390f35b34801561035157600080fd5b5061035a61090a565b60405161036791906115e8565b60405180910390f35b34801561037c57600080fd5b5061038561092e565b604051610392919061155b565b60405180910390f35b3480156103a757600080fd5b506103b0610934565b6040516103bd919061155b565b60405180910390f35b3480156103d257600080fd5b506103ed60048036038101906103e89190611661565b61093a565b6040516103fa9190611527565b60405180910390f35b34801561040f57600080fd5b5061042a600480360381019061042591906117ba565b6109a4565b005b34801561043857600080fd5b506104416109f3565b60405161044e91906115e8565b60405180910390f35b61045f6109fa565b005b34801561046d57600080fd5b50610476610e3d565b60405161048391906115e8565b60405180910390f35b34801561049857600080fd5b506104b360048036038101906104ae9190611661565b610e61565b005b3480156104c157600080fd5b506104dc60048036038101906104d791906117e7565b610e82565b005b3480156104ea57600080fd5b506104f3610ed0565b60405161050091906115e8565b60405180910390f35b60007f7965db0b000000000000000000000000000000000000000000000000000000007bffffffffffffffffffffffffffffffffffffffffffffffffffffffff1916827bffffffffffffffffffffffffffffffffffffffffffffffffffffffff1916148061057c575061057b82610ef4565b5b9050919050565b60055481565b6000806000838152602001908152602001600020600101549050919050565b60045481565b6105b782610589565b6105c081610f5e565b6105ca8383610f72565b505050565b60075481565b6105dd611052565b73ffffffffffffffffffffffffffffffffffffffff168173ffffffffffffffffffffffffffffffffffffffff161461064a576040517f08c379a0000000000000000000000000000000000000000000000000000000008152600401610641906118aa565b60405180910390fd5b610654828261105a565b5050565b60085481565b6000801b61066b81610f5e565b600073ffffffffffffffffffffffffffffffffffffffff16600360008473ffffffffffffffffffffffffffffffffffffffff1673ffffffffffffffffffffffffffffffffffffffff16815260200190815260200160002060000160009054906101000a900473ffffffffffffffffffffffffffffffffffffffff1673ffffffffffffffffffffffffffffffffffffffff16141561073d576040517f08c379a000000000000000000000000000000000000000000000000000000000815260040161073490611916565b60405180910390fd5b600360008373ffffffffffffffffffffffffffffffffffffffff1673ffffffffffffffffffffffffffffffffffffffff16815260200190815260200160002060010154600560008282546107919190611965565b92505081905550600360008373ffffffffffffffffffffffffffffffffffffffff1673ffffffffffffffffffffffffffffffffffffffff168152602001908152602001600020600080820160006101000a81549073ffffffffffffffffffffffffffffffffffffffff02191690556001820160009055600282016000905550506004600081548092919061082490611999565b91905055506108537fb165298935924f540e4181c03493a5d686c54a0aaeb3f6216de85b7ffbba773883610e61565b8173ffffffffffffffffffffffffffffffffffffffff167fba0013628ccb89af5bb18edf764d3a7b35c07b894848b8e6fd3434719de39c7d60405160405180910390a25050565b600260009054906101000a900473ffffffffffffffffffffffffffffffffffffffff1681565b60036020528060005260406000206000915090508060000160009054906101000a900473ffffffffffffffffffffffffffffffffffffffff16908060010154908060020154905083565b7fb165298935924f540e4181c03493a5d686c54a0aaeb3f6216de85b7ffbba773881565b60065481565b60095481565b600080600084815260200190815260200160002060000160008373ffffffffffffffffffffffffffffffffffffffff1673ffffffffffffffffffffffffffffffffffffffff16815260200190815260200160002060009054906101000a900460ff16905092915050565b6000801b6109b181610f5e565b816008819055507fdb1f306779a1dd9a5fdbfae40ffc3f9f99e3f8e10577c85a45635e2565a403b7826040516109e7919061155b565b60405180910390a15050565b6000801b81565b610a0261113b565b6006544210158015610a1657506007544211155b610a55576040517f08c379a0000000000000000000000000000000000000000000000000000000008152600401610a4c90611a0f565b60405180910390fd5b600073ffffffffffffffffffffffffffffffffffffffff16600360003373ffffffffffffffffffffffffffffffffffffffff1673ffffffffffffffffffffffffffffffffffffffff16815260200190815260200160002060000160009054906101000a900473ffffffffffffffffffffffffffffffffffffffff1673ffffffffffffffffffffffffffffffffffffffff1614610b26576040517f08c379a0000000000000000000000000000000000000000000000000000000008152600401610b1d90611a7b565b60405180910390fd5b600034905060008111610b6e576040517f08c379a0000000000000000000000000000000000000000000000000000000008152600401610b6590611b0d565b60405180910390fd5b600060085482610b7e9190611b2d565b905060008111610bc3576040517f08c379a0000000000000000000000000000000000000000000000000000000008152600401610bba90611bf9565b60405180910390fd5b600954811115610c08576040517f08c379a0000000000000000000000000000000000000000000000000000000008152600401610bff90611c65565b60405180910390fd5b60405180606001604052803373ffffffffffffffffffffffffffffffffffffffff16815260200183815260200142815250600360003373ffffffffffffffffffffffffffffffffffffffff1673ffffffffffffffffffffffffffffffffffffffff16815260200190815260200160002060008201518160000160006101000a81548173ffffffffffffffffffffffffffffffffffffffff021916908373ffffffffffffffffffffffffffffffffffffffff16021790555060208201518160010155604082015181600201559050508160056000828254610ce89190611c85565b9250508190555060046000815480929190610d0290611cdb565b9190505550600260009054906101000a900473ffffffffffffffffffffffffffffffffffffffff1673ffffffffffffffffffffffffffffffffffffffff1663a9059cbb33836040518363ffffffff1660e01b8152600401610d64929190611d24565b602060405180830381600087803b158015610d7e57600080fd5b505af1158015610d92573d6000803e3d6000fd5b505050506040513d601f19601f82011682018060405250810190610db69190611d79565b50610de17fb165298935924f540e4181c03493a5d686c54a0aaeb3f6216de85b7ffbba773833610f72565b3373ffffffffffffffffffffffffffffffffffffffff167f8fafebcaf9d154343dad25669bfa277f4fbacd7ac6b0c4fed522580e040a0f338383604051610e29929190611da6565b60405180910390a25050610e3b61118b565b565b7f9f2df0fed2c77648de5860a4cc508cd0818c85b8b8a1ab4ceeef8d981c8956a681565b610e6a82610589565b610e7381610f5e565b610e7d838361105a565b505050565b6000801b610e8f81610f5e565b826006819055508160078190555081837f23530d36cff65bfe40b99351633e1a5fd07e661c26af0cccd182ba0dc06bfbe460405160405180910390a3505050565b7f65d7a28e3265b37a6474929f336521b332c1681b933f6cb9f3376673440d862a81565b60007f01ffc9a7000000000000000000000000000000000000000000000000000000007bffffffffffffffffffffffffffffffffffffffffffffffffffffffff1916827bffffffffffffffffffffffffffffffffffffffffffffffffffffffff1916149050919050565b610f6f81610f6a611052565b611194565b50565b610f7c828261093a565b61104e57600160008084815260200190815260200160002060000160008373ffffffffffffffffffffffffffffffffffffffff1673ffffffffffffffffffffffffffffffffffffffff16815260200190815260200160002060006101000a81548160ff021916908315150217905550610ff3611052565b73ffffffffffffffffffffffffffffffffffffffff168173ffffffffffffffffffffffffffffffffffffffff16837f2f8788117e7eff1d82e926ec794901d17c78024a50270940304540a733656f0d60405160405180910390a45b5050565b600033905090565b611064828261093a565b1561113757600080600084815260200190815260200160002060000160008373ffffffffffffffffffffffffffffffffffffffff1673ffffffffffffffffffffffffffffffffffffffff16815260200190815260200160002060006101000a81548160ff0219169083151502179055506110dc611052565b73ffffffffffffffffffffffffffffffffffffffff168173ffffffffffffffffffffffffffffffffffffffff16837ff6391f5c32d9c69d2a47ea670b442974b53935d1edc7fd64eb21e047a839171b60405160405180910390a45b5050565b60026001541415611181576040517f08c379a000000000000000000000000000000000000000000000000000000000815260040161117890611e1b565b60405180910390fd5b6002600181905550565b60018081905550565b61119e828261093a565b611215576111ab81611219565b6111b98360001c6020611246565b6040516020016111ca929190611f4d565b6040516020818303038152906040526040517f08c379a000000000000000000000000000000000000000000000000000000000815260040161120c9190611fd1565b60405180910390fd5b5050565b606061123f8273ffffffffffffffffffffffffffffffffffffffff16601460ff16611246565b9050919050565b6060600060028360026112599190611b2d565b6112639190611c85565b67ffffffffffffffff81111561127c5761127b611ff3565b5b6040519080825280601f01601f1916602001820160405280156112ae5781602001600182028036833780820191505090505b5090507f3000000000000000000000000000000000000000000000000000000000000000816000815181106112e6576112e5612022565b5b60200101907effffffffffffffffffffffffffffffffffffffffffffffffffffffffffffff1916908160001a9053507f78000000000000000000000000000000000000000000000000000000000000008160018151811061134a57611349612022565b5b60200101907effffffffffffffffffffffffffffffffffffffffffffffffffffffffffffff1916908160001a9053506000600184600261138a9190611b2d565b6113949190611c85565b90505b6001811115611434577f3031323334353637383961626364656600000000000000000000000000000000600f8616601081106113d6576113d5612022565b5b1a60f81b8282815181106113ed576113ec612022565b5b60200101907effffffffffffffffffffffffffffffffffffffffffffffffffffffffffffff1916908160001a905350600485901c94508061142d90611999565b9050611397565b5060008414611478576040517f08c379a000000000000000000000000000000000000000000000000000000000815260040161146f9061209d565b60405180910390fd5b8091505092915050565b600080fd5b60007fffffffff0000000000000000000000000000000000000000000000000000000082169050919050565b6114bc81611487565b81146114c757600080fd5b50565b6000813590506114d9816114b3565b92915050565b6000602082840312156114f5576114f4611482565b5b6000611503848285016114ca565b91505092915050565b60008115159050919050565b6115218161150c565b82525050565b600060208201905061153c6000830184611518565b92915050565b6000819050919050565b61155581611542565b82525050565b6000602082019050611570600083018461154c565b92915050565b6000819050919050565b61158981611576565b811461159457600080fd5b50565b6000813590506115a681611580565b92915050565b6000602082840312156115c2576115c1611482565b5b60006115d084828501611597565b91505092915050565b6115e281611576565b82525050565b60006020820190506115fd60008301846115d9565b92915050565b600073ffffffffffffffffffffffffffffffffffffffff82169050919050565b600061162e82611603565b9050919050565b61163e81611623565b811461164957600080fd5b50565b60008135905061165b81611635565b92915050565b6000806040838503121561167857611677611482565b5b600061168685828601611597565b92505060206116978582860161164c565b9150509250929050565b6000602082840312156116b7576116b6611482565b5b60006116c58482850161164c565b91505092915050565b6000819050919050565b60006116f36116ee6116e984611603565b6116ce565b611603565b9050919050565b6000611705826116d8565b9050919050565b6000611717826116fa565b9050919050565b6117278161170c565b82525050565b6000602082019050611742600083018461171e565b92915050565b61175181611623565b82525050565b600060608201905061176c6000830186611748565b611779602083018561154c565b611786604083018461154c565b949350505050565b61179781611542565b81146117a257600080fd5b50565b6000813590506117b48161178e565b92915050565b6000602082840312156117d0576117cf611482565b5b60006117de848285016117a5565b91505092915050565b600080604083850312156117fe576117fd611482565b5b600061180c858286016117a5565b925050602061181d858286016117a5565b9150509250929050565b600082825260208201905092915050565b7f416363657373436f6e74726f6c3a2063616e206f6e6c792072656e6f756e636560008201527f20726f6c657320666f722073656c660000000000000000000000000000000000602082015250565b6000611894602f83611827565b915061189f82611838565b604082019050919050565b600060208201905081810360008301526118c381611887565b9050919050565b7f496e766573746f7220646f6573206e6f742065786973742e0000000000000000600082015250565b6000611900601883611827565b915061190b826118ca565b602082019050919050565b6000602082019050818103600083015261192f816118f3565b9050919050565b7f4e487b7100000000000000000000000000000000000000000000000000000000600052601160045260246000fd5b600061197082611542565b915061197b83611542565b92508282101561198e5761198d611936565b5b828203905092915050565b60006119a482611542565b915060008214156119b8576119b7611936565b5b600182039050919050565b7f49434f206973206e6f74206163746976652e0000000000000000000000000000600082015250565b60006119f9601283611827565b9150611a04826119c3565b602082019050919050565b60006020820190508181036000830152611a28816119ec565b9050919050565b7f496e766573746f7220616c7265616479206578697374732e0000000000000000600082015250565b6000611a65601883611827565b9150611a7082611a2f565b602082019050919050565b60006020820190508181036000830152611a9481611a58565b9050919050565b7f54686520696e766573746d656e7420616d6f756e74206d75737420626520677260008201527f6561746572207468616e20302045544800000000000000000000000000000000602082015250565b6000611af7603083611827565b9150611b0282611a9b565b604082019050919050565b60006020820190508181036000830152611b2681611aea565b9050919050565b6000611b3882611542565b9150611b4383611542565b9250817fffffffffffffffffffffffffffffffffffffffffffffffffffffffffffffffff0483118215151615611b7c57611b7b611936565b5b828202905092915050565b7f54686520696e766573746d656e74206d7573742062652067726561746572207460008201527f68616e20302050444d20746f6b656e7300000000000000000000000000000000602082015250565b6000611be3603083611827565b9150611bee82611b87565b604082019050919050565b60006020820190508181036000830152611c1281611bd6565b9050919050565b7f4d6178696d756d2049434f20746f6b656e206361702072656163686564000000600082015250565b6000611c4f601d83611827565b9150611c5a82611c19565b602082019050919050565b60006020820190508181036000830152611c7e81611c42565b9050919050565b6000611c9082611542565b9150611c9b83611542565b9250827fffffffffffffffffffffffffffffffffffffffffffffffffffffffffffffffff03821115611cd057611ccf611936565b5b828201905092915050565b6000611ce682611542565b91507fffffffffffffffffffffffffffffffffffffffffffffffffffffffffffffffff821415611d1957611d18611936565b5b600182019050919050565b6000604082019050611d396000830185611748565b611d46602083018461154c565b9392505050565b611d568161150c565b8114611d6157600080fd5b50565b600081519050611d7381611d4d565b92915050565b600060208284031215611d8f57611d8e611482565b5b6000611d9d84828501611d64565b91505092915050565b6000604082019050611dbb600083018561154c565b611dc8602083018461154c565b9392505050565b7f5265656e7472616e637947756172643a207265656e7472616e742063616c6c00600082015250565b6000611e05601f83611827565b9150611e1082611dcf565b602082019050919050565b60006020820190508181036000830152611e3481611df8565b9050919050565b600081905092915050565b7f416363657373436f6e74726f6c3a206163636f756e7420000000000000000000600082015250565b6000611e7c601783611e3b565b9150611e8782611e46565b601782019050919050565b600081519050919050565b60005b83811015611ebb578082015181840152602081019050611ea0565b83811115611eca576000848401525b50505050565b6000611edb82611e92565b611ee58185611e3b565b9350611ef5818560208601611e9d565b80840191505092915050565b7f206973206d697373696e6720726f6c6520000000000000000000000000000000600082015250565b6000611f37601183611e3b565b9150611f4282611f01565b601182019050919050565b6000611f5882611e6f565b9150611f648285611ed0565b9150611f6f82611f2a565b9150611f7b8284611ed0565b91508190509392505050565b6000601f19601f8301169050919050565b6000611fa382611e92565b611fad8185611827565b9350611fbd818560208601611e9d565b611fc681611f87565b840191505092915050565b60006020820190508181036000830152611feb8184611f98565b905092915050565b7f4e487b7100000000000000000000000000000000000000000000000000000000600052604160045260246000fd5b7f4e487b7100000000000000000000000000000000000000000000000000000000600052603260045260246000fd5b7f537472696e67733a20686578206c656e67746820696e73756666696369656e74600082015250565b6000612087602083611827565b915061209282612051565b602082019050919050565b600060208201905081810360008301526120b68161207a565b905091905056fea264697066735822122098ed3bfff65546c4d7f3c7138c0fcdbbc6a6aa630d9ec4d5b6686179c356b24864736f6c63430008090033",
  "linkReferences": {},
  "deployedLinkReferences": {}
}